:020000040000FA
:100000009812001001030000090300000B03000018
:1000100000000000000000000000000000000000E0
:10002000000000000000000000000000FD010000D2
:10003000000000000000000091020000DD0200004E
:10004000130300001303000000000000DD12000095
:10005000130300001303000000000000130300005E
:100060001303000013030000130300001303000038
:100070001303000013030000130300001303000028
:100080001303000013030000130300001303000018
:10009000130300001303000013030000000000001E
:1000A00013030000130300001303000013030000F8
:1000B00013030000130300001303000013030000E8
:1000C00000F002F800F041F80CA030C808382418FD
:1000D0002D18A246671EAB4654465D46AC4201D180
:1000E00000F033F87E460F3E0FCCB6460126334271
:1000F00000D0FB1AA246AB4633431847D83B00005A
:10010000F83B0000103A02D378C878C1FAD85207F9
:1001100001D330C830C101D504680C6070470000BD
:100120000023002400250026103A01D378C1FBD813
:10013000520700D330C100D50B60704710B50020C6
:1001400010BD1FB51FBD10B510BD00F0CBFE114690
:10015000FFF7F7FF0FB400F00BF80FBC01F0D4FD70
:1001600000F02CF903B4FFF7EEFF03BC01F03AF9FD
:1001700004B001F0CDFE0448002101F0D9FF01F0E8
:10018000DBFE00F01BF90000583B000080F30988FB
:100190007047EFF309807047684680F30988064886
:1001A0000078C00703D1032080F314887047022031
:1001B00080F3148870470000183B0000064B9C46F3
:1001C000EFF305831B0605D1EFF31483DB0701D0A2
:1001D00000DF70476047000029220000064B9C4664
:1001E000EFF305831B0605D1EFF31483DB0701D082
:1001F00000DF704760470000B1240000EFF3098082
:100200008169891E097800292BD1A6461FC8A446FA
:100210007446E047EFF3098307C31A4B06CB9142BC
:100220001CD0083B00290DD0EFF3098020388862EC
:10023000F0C044464D4656465F46F0C00CB402F04E
:100240000BFD0CBC1A60906A1030F0C8A046A9469D
:10025000B246BB4680F309882038F0C80220C0436C
:10026000004710B5084A1268914209D8074C890026
:100270006458A6461FC8A446F047EFF309840FC48C
:1002800010BD0000A4000010240F0000240F000087
:1002900002F0C2FB104B06CB91421AD0083BEFF3A1
:1002A000098020388862F0C044464D4656465F4675
:1002B000F0C00CB402F0D0FC0CBC1A60906A103094
:1002C000F0C8A046A946B246BB4680F3098820384C
:1002D000F0C80220C0430047A400001002F06EFDE9
:1002E000D8E7000000F009F802F068FDD2E700004E
:1002F000004870473410001070477047FFFFFFFF41
:100300000748804707480047FEE7FEE7FEE7FEE7AD
:10031000FEE7FEE704480549034A054B7047000025
:1003200019120000C100000098100010981200106F
:10033000981000100FB4054910B503AA029800F0F8
:10034000A5FD10BC08BC04B01847000070000010E8
:10035000F8B50E460446002020622046E168884732
:10036000002829D0252802D06268A16820E0E16831
:1003700020460027884705001ED028464138192806
:1003800002D80127FF022035324620462760294641
:10039000FFF7D4FE002808D0012804D0F61DF60887
:1003A000F6000836D9E7361DD7E762682846A16807
:1003B0009047206A401CCFE7206AF8BD10B504467C
:1003C000C046C0462046FFF7CDFE10BD30B5441CE8
:1003D00003E00178401C00290DD08107F9D10B4BB7
:1003E000DD0104C8D11A91432940FAD0001B0A0646
:1003F00003D0C01E30BD001B30BD0A0401D0801EDA
:1004000030BD0902FCD0401E30BD000001010101D9
:10041000002203098B422CD3030A8B4211D3002301
:100420009C464EE003460B433CD4002243088B42DB
:1004300031D303098B421CD3030A8B4201D3944668
:100440003FE0C3098B4201D3CB01C01A524183095B
:100450008B4201D38B01C01A524143098B4201D315
:100460004B01C01A524103098B4201D30B01C01A40
:100470005241C3088B4201D3CB00C01A52418308BA
:100480008B4201D38B00C01A524143088B4201D3E7
:100490004B00C01A5241411A00D201465241104647
:1004A00070475DE0CA0F00D04942031000D34042BC
:1004B000534000229C4603098B422DD3030A8B42F2
:1004C00012D3FC22890112BA030A8B420CD3890190
:1004D00092118B4208D3890192118B4204D3890176
:1004E0003AD0921100E08909C3098B4201D3CB01B4
:1004F000C01A524183098B4201D38B01C01A524169
:1005000043098B4201D34B01C01A524103098B426C
:1005100001D30B01C01A5241C3088B4201D3CB0057
:10052000C01A524183088B4201D38B00C01A52413A
:10053000D9D243088B4201D34B00C01A5241411A11
:1005400000D20146634652415B10104601D340423F
:10055000002B00D54942704763465B1000D34042F0
:1005600001B50020C046C04602BD704770477047C5
:10057000F0B5F94D0C091E092C402E402F468BB0CA
:10058000A7437DD0B543FCD0002E7AD0002CFCD000
:100590000D465D40ED0F2543AC1BFF25AD046419EE
:1005A0000894C502440DC9022143500DDC020443E6
:1005B0000120C00701430443D2020191200C110C19
:1005C00000958C46010423468B430A916146090439
:1005D000E24D8A430991010A7D444919803909781D
:1005E00005464D4301266D18F605751B6943C90C78
:1005F000640B891C4C436418B5012C1B250C2E047C
:10060000B4434C434D43210C691889090591009D61
:10061000E90701D00121C90704912C460199670817
:10062000CD072F434C08059DE10B4D432D0C29466A
:100630006646754302950D4645432E46029D7D1B39
:10064000B44100950D465D4301942C0C2F040D46DA
:100650005543AE462D0C3D43029503947546049CCC
:100660002D04641B049406D2029C039D641C002686
:1006700075410395029401AC70CC009F7D1B01E095
:100680003EE162E1B44109040095079101940599A6
:10069000A4086143090C0C464443650BE7040C466F
:1006A00066467443A646640B3C4303950294744625
:1006B000049DE4042C1B049406D2029C039D641C3C
:1006C000002675410395029401AC70CC009F7D1B00
:1006D000B44101940C465C430095650FE7000C465D
:1006E0005443A646640F3C43039502947446049D0C
:1006F000E4002C1B049406D2029C039D641C00267B
:1007000075410395029401AC70CC009F7D1BB441F0
:10071000AE09AF06049DC900AD092F43049DA40690
:10072000AD060495079D344369180791059DE10BBB
:100730004D432D0C29466646754302950D464543AB
:100740002E46029D7D1BB44100950D465D430194EC
:100750002C0C2F040D465543AE462D0C3D430295FF
:1007600003947546049C2D04641B049406D2029CD9
:10077000039D641C002675410395029401AC70CC66
:10078000009F7D1BB44101948C050694079C890A47
:10079000611800950791019C0599A4086143090C13
:1007A0000D464543680BEF040D46644665436C0BEC
:1007B0003C43049FED047D1BAC4602D20025641C23
:1007C0006841009E019D371B8541084658430195AD
:1007D0000C46460FC5005443600F28436546E400AD
:1007E0002C1B02D20025401C6E41019D3F1AB541D1
:1007F0002846BD09800628438446A009BF064E024C
:100800000699A40676180743079D002068410A99B7
:10081000079019430020099B00906046FF1913437D
:100820004041E20F64003A43A4460446D71A8C4183
:10083000A04203D90120009020463A46C70F9418E1
:1008400040416246D20F2243644664000494009CF7
:10085000BE466400D71AA446044602978C417746E8
:10086000002F01D1A04204D96046401C8446029A60
:100870002046C40FA64694184041049A0546D20F5C
:10088000224364466400D31A8D417146002901D188
:10089000A84202D928461A46641C104301220028A7
:1008A00000D0164361020020079B891904465C4171
:1008B0000223002C02DB491813466441089DCE0A2E
:1008C0002D145D194B056705E10A2C050D190899D2
:1008D0003E43C9076940002B08D0934006D300224D
:1008E000761C5141002B01D1760876001C4A002D60
:1008F00043DB154241D0AA433FD030460BB0F0BD98
:1009000006180D464D41174C7642AC411AD3951846
:100910001C465C41134A6D42A24113D30122520589
:100920004C00D4420AD15C00D4420BD04B4002D5DB
:1009300092021143E2E749004908DFE75940C90F35
:10094000C90718E000200849D8E7054801420DD141
:100950000342F7D0F2E700000000FF078C350000EB
:100960000000F07F0000E0FF0000F87F11485940D0
:100970000143C01241400020C0E70123089A9B06B2
:100980009A4205DC032252078918C90FC907B5E747
:10099000052252078918074A1143D2125140ADE788
:1009A00070B515461C4602460B4628462146FFF701
:1009B000DFFD70BDFFFFFF7F0346CA02400D10B58B
:1009C00010430A1504D00124E4072043002A05DB64
:1009D0000A4CA21A04D4D040FF2A00DD002010BD2A
:1009E0004A00002B01D0012000E000201018012255
:1009F0005205D042F2D8C817C04310BD1E040000F3
:100A0000F0B58B4C0F09254689B0BD437BD01D093D
:100A10002646AE43FAD00E465E402740F60F3E43D0
:100A2000254071D024012142FBD0FF24AD19A4043C
:100A30002D1B039501252D05DB02DB0AC9022B4383
:100A4000C90A29431E010901040F130F050121439F
:100A50001701880B820391432D098C46A90B1E4375
:100A60008A039543B30B9A0396433F09BA0B940349
:100A7000A74302962E467E430497B6464E19D719D1
:100A80000C460196544305977E43371B7646BF1BA1
:100A90003601B646BE0B361900967646BC043719A9
:100AA000009C01D3641C00946400002F01D0012637
:100AB0003443029E049F754366467E430496760047
:100AC00034196E0034190094029C019E1C1966436F
:100AD000751BAE46069465464519059C05956C4305
:100AE000594375460891691A0191049E0146514384
:100AF000A41B0491611A009C0791E10605D06109CD
:100B00000122114302E072E06EE06109089D0027B6
:100B10002C0A2D066918049D7C412A0A2D066918A5
:100B2000019D6241AC0DAD026D185441079A910DC3
:100B3000920255196141029A644658435443069BF8
:100B4000059A5A43121A131B9A0E9B015B187A419D
:100B5000010B0005C3185141220A200644195A41CD
:100B60009A4200D2491C01204002814203D315233E
:100B70000226F64302E014230326F6432020C51A7A
:100B8000A9401746AF40DA400A4320460399D840AF
:100B90000914731819055118039A3843D2075140A4
:100BA000AC4009D00122944006D30022401C5141A0
:100BB000002C01D1400840001E4A934212D301226A
:100BC00003989206904207DB0520400709181A484F
:100BD0000143C012414004E0032040070818C10F40
:100BE000C907002009B0F0BD0020F107FAE7051899
:100BF0000C464C4111486D42A04115D394181A4639
:100C00005A410E48644290410ED301204A004005EB
:100C1000824209D35A00824206D35940C90F084A7A
:100C2000C90700201143DDE700200649DAE700008C
:100C30000000FF07FE070000FFFFFF7F0000E0FF4E
:100C40000000F07F0000F87F0121C9050123411851
:100C500042001B06D3185B0E0AD0C1100722D20631
:100C6000891840075242D14201D552008918704775
:100C7000090208D50146002A03D0C10FC907002088
:100C8000704710467047420202D000200249704768
:100C9000072109050143F4E70000F87FF0B5FF25BF
:100CA0002D04C609C209FF2704462E400137CB098F
:100CB0003E4348402A402B400746002A6BD0002B79
:100CC00069D0AA4267D0AB4265D0002800DA32462C
:100CD0000125ED0529432C4309022002090AD21AF5
:100CE0004B0C7F24E31A434C000A7C44E35C7D24D4
:100CF0002404121914145B00A218884201D3521C58
:100D000000E0400049420C465C4324115C43DB0197
:100D10006415E318040A5C43C502200D0C464443E5
:100D20006419250A5D432303EC0C0D46654300035B
:100D30000019EB184C42A34201D35B18401CD405A8
:100D40002018002B07D05B00C91804D3401C0029D1
:100D500001D1400840003F2189048A4209D3002A7A
:100D600008DC1106090F04D0032149074018C00F01
:100D7000C007F0BD01224100120689187F225206E9
:100D80009142F6D205214907C84201D59010F0BD25
:100D9000FF20C005F0BD002F00DA32461648AA42F7
:100DA00007D2AB4205D21902090E17D0F80FC007BF
:100DB000F0BDFF2563002D06AB42F9D84900A942DA
:100DC000F6D8AB4201D1A942F2D0A94201D100210B
:100DD00001E061004908D0050843F0BD1102090E89
:100DE000FBD0FF200243D005F0BD0A460146104665
:100DF00054E70000FA2E00000000C07F0102C21577
:100E000004D00123DB071943002A0ADB9E239A1A28
:100E100002D40846D0407047FF224100120691429A
:100E200001D900207047C017C04370471F22030C30
:100E300002D10F2200041CD0030E01D10002083A97
:100E4000030F01D10001121F830F01D18000921EF8
:100E5000002801DB4000521ED20551180212511821
:100E60001922904004D3491C002801D149084900A7
:100E700008467047C10FC90700D0404201229207BF
:100E80001143D3E701218907D0E70000084B70B573
:100E90000D467B4400F013F80446284600F0E6FDBA
:100EA000002802D00020C04370BD204670BD000065
:100EB000DF0B000001694A1C02610878704700B529
:100EC0008FB0029100210591054901937944039166
:100ED000114604906846FFF73BFA0FB000BD0000D2
:100EE000E5FFFFFF7546FFF703FAAE4605006946CA
:100EF0005346C008C000854618B020B5FFF70AFA6F
:100F000060BC00274908B6460026C0C5C0C5C0C59C
:100F1000C0C5C0C5C0C5C0C5C0C5403D49008D469F
:100F2000704700000000000010B514480068144924
:100F300008431249086013480068134908431149DF
:100F4000086002F08BF9002000F034F8002000F077
:100F50001FF8002000F09AF8002000F0A9F8002007
:100F600000F038F8012000050849086040100860CA
:100F70004010064980310860002010BD8080044088
:100F8000DE8C0C21002000A000835D0F002200A059
:100F90000146002904D1FF200130054A106004E019
:100FA000FF200130024A803A1060002070470000A4
:100FB000802200A00146802903D1C003044A1060AA
:100FC00004E001208005024A803210600020704752
:100FD000002200A000B501460B0000F0B1F90805A1
:100FE00009131C252E3741462448254A106041E04C
:100FF00001200004224A8032106003208006204A2B
:10100000106037E00120C0061D4A803210601D4884
:101010001B4A10602EE001208006194A10601A4811
:10102000174A8032106025E001208006144A803281
:1010300010601548124A10601CE00120C006104ADA
:10104000106010480E4A8032106013E00120000446
:101050000B4A106003208006094A8032106009E0C4
:101060000648074A8032106004E00448044A80328F
:10107000106000BF00BF002000BD00000000010C98
:10108000002200A000000104000001080146002920
:1010900004D101204002054A106004E00120400212
:1010A000024A803A1060002070470000802200A0B1
:1010B00010B50446230000F043F90906101A2D402C
:1010C00054687B8E9A000120FFF7E0FF4E480068CD
:1010D0004E4908434C49086093E00120FFF7D6FFD2
:1010E00049480068494908434749086089E00120A8
:1010F000FFF7CCFF444880380068012149060843C7
:1011000041498039086040480068414908433E49E8
:10111000086076E00120FFF7B9FF3B48803800689F
:1011200001210906084338498039086036480068BB
:10113000384908433449086063E00120FFF7A6FFFF
:10114000314800680121C90308432F4908602E482F
:10115000803800680321090608432B49803908605C
:101160004FE00120FFF792FF2748803800680121F7
:10117000C9030843244980390860234800680321D3
:1011800009060843204908603BE00120FFF77EFF85
:101190001D4800680121090608431B4908601A48D8
:1011A000803800681B49084317498039086028E0E7
:1011B0000120FFF76BFF144800680121490608432E
:1011C00011490860104880380068114908430E49E9
:1011D0008039086015E00120FFF758FF0A48803881
:1011E00000680A49084308498039086009E001207D
:1011F000FFF74CFF044800680449084302490860AF
:1012000000BF00BF002010BD802200A000800003AE
:101210000080000100800002012001E000BF401CAE
:101220000028FBD029490968294A1143274A11603F
:101230000021264A403A116051600121516000208E
:1012400001E000BF401C23498842FAD300E000BF00
:101250001E4940394968C907C90F0029F7D0412103
:101260001A4A803A91601C49896B802291431A4A3C
:101270009163002001E000BF401C16498842FAD368
:1012800000E000BF11498039C968C907C90F0029AA
:10129000F7D003210D4A403A116300215163012127
:1012A0005163002001E000BF401C0A498842FAD384
:1012B00000E000BF05494039496BC907C90F002943
:1012C000F7D00121014A403A916370478080044081
:1012D00080000400204E00000082044010B5044845
:1012E0004069C4B201210348006800F005FF10BD49
:1012F000004006403000001070B50446012600256D
:101300000BE00E484068C007C00F002801D000263F
:1013100005E0322000F0EEFD6D1C0A2DF1D300BF78
:10132000012E01D1FF2070BD044840680E21084005
:10133000A04201D0FE20F6E70020F4E700000540BF
:1013400030B47446641E2578641CAB4204D3635DDC
:101350005B00E31830BC18471D46F8E710B5002ABB
:1013600006DA52005208D21DD308DB00102203E037
:10137000D21C93089B000C22002B02D09C188C429C
:1013800001D9012010BD82188360411802604160BC
:10139000C91AD018884202D810600246F9E7002026
:1013A000106010BD80B505490978002904D0054FAB
:1013B00000680349BC4600DF80BD00009D000010AE
:1013C000FFFF00009929000080B504490978002931
:1013D00003D0034F0068BC4600DF80BD9D000010B5
:1013E000C128000000BFFEE770B500250F48006867
:1013F0000121890608430D490860084600680C4928
:10140000C86006E00A2000F075FD6D1C0A2D00D9A9
:1014100005E00748806CC00FC0070028F2D000BF6D
:101420000348846C2004040D204670BD8000001029
:1014300000C0014010B53F48806B102188433D49F2
:1014400088633D4840680121090688433A4948605D
:101450000846406801210906084337494860364874
:101460008030006835490843334980310860344989
:1014700034480068FEF7CCFF441E0120800720435B
:101480003149086000BF30480068012189070840E1
:101490000028F8D12D4800680321890588432B498D
:1014A0000860084600682A49084328490860264819
:1014B0004030C06A2021884323494031C862254911
:1014C00020480068FEF7A4FF441E1F480460401532
:1014D000214908604000214908601F4800681E49F2
:1014E00008601E4800681D4908601B48006801210B
:1014F00089040843184908601848006801218904D4
:10150000084316490860144800680121C9070843C8
:1015100011490860084600680B4988600F48006858
:10152000490408430D490860084600680649C86038
:1015300010BD00000082044000800440C000000193
:1015400020A107009800001000C00140C0C1004069
:1015500000E03F0180C3C9017C0000108000001042
:1015600070B500250F4800680121890608430D4920
:101570000860084600680C49886006E00A2000F010
:10158000B9FC6D1C0A2D00D905E00748406CC00F5E
:10159000C0070028F2D000BF0348446C2004040DAB
:1015A000204670BD7C00001000C0014088B00024BF
:1015B0000027002007900026FA48006800F05EFD32
:1015C000054600BF0021C943F748006800F004FD4C
:1015D000F64B07C300200790F44800681028F1D1AB
:1015E00000200790002415E0F04840680190019821
:1015F000005DEF490855002C0BD00198005D0A28CA
:1016000007D1AA200790EB480199006800F062FD1D
:1016100002E0641C282CE7D300BF002402E0002075
:101620002855641C282CFAD30798AA28CAD101F09F
:10163000EFFEE149087009788900E04A5058FEF74A
:10164000C5FE0746DC48007805280CDA002407E0D0
:10165000D94800788000D9490858005D2855641C95
:10166000BC42F5D30DE0D5494869FEF7AFFE074609
:10167000002404E0D1484069005D2855641CBC4248
:10168000F8D3CD4800780300FFF75AFE05042C9AE2
:10169000E0FCFB008020CA490860FFF78BFC0120BA
:1016A000FFF7F4FC0021C74800F042FDC64908607E
:1016B000E0B20690C5490868FEF788FE0746002498
:1016C00006E0C2480068015D069820182954641C91
:1016D000BC42F6D30022D2432946BD48006800F040
:1016E00089FC59E10020B6490860FFF7CFFC0020D3
:1016F000FFF760FCB448006800F040FDB048406867
:1017000002900021C943B348006800F0A9FC684674
:10171000027A0021502000F03BFA03900398002841
:101720001AD16846427A0121502000F031FA039024
:101730000398002810D16846827A0221502000F0D8
:1017400027FA03900398002806D16846C27A03213D
:10175000502000F01DFA03909E48006800F072FCD3
:101760000398002812D1E0B2069098490868FEF765
:101770002DFE0746002406E094480068015D0698A7
:1017800020182954641CBC42F6D311E0E0B2069044
:1017900091480068FEF71AFE0746002406E08E48CE
:1017A0000068015D069820182954641CBC42F6D3D9
:1017B0000022D24329468648006800F01BFCEBE07B
:1017C00086480078AA2840D10022D2432946804882
:1017D000006800F00FFC00200590002622E07F4901
:1017E000701C085C002800D11EE07C49701C085C5D
:1017F000202800D114E07949701C085C30280EDBE9
:10180000701C085C39280ADC0A21059848430590B9
:101810007249701C085C303805994018059000BF6B
:10182000701CC6B2052EDADB00BF0598FFF72AFB55
:101830006B490190FFF732FA614948600022D243B8
:1018400068480599006800F0D5FBA5E05C49886808
:10185000634902F0B3F80190FFF7D0FA05907D21BB
:10186000C9000598FEF7D4FD30302146641C685449
:101870007D21C9000598FEF7CBFD059164210598EF
:1018800001E081E032E0FEF7C3FD3030C2B2204615
:10189000641C2A5464210598FEF7BAFD05910A21BB
:1018A0000598FEF7B5FD3030C2B22046641C2A54BC
:1018B0000A210598FEF7ACFD059105983030C2B2BB
:1018C0002046641C2A540D222046641C2A540A22F5
:1018D0002046641C2A5400222146641C6A54521E6D
:1018E00029463B48006800F085FB55E03449C8684C
:1018F0003B4902F063F80190FFF780FA04907D21E4
:10190000C9000498FEF784FD3030C2B22046641C42
:101910002A547D21C9000498FEF77AFD04916421C0
:101920000498FEF775FD3030C2B22046641C2A547C
:1019300064210498FEF76CFD04910A210498FEF7D7
:1019400067FD3030C2B22046641C2A540A21049834
:10195000FEF75EFD049104983030C2B22046641C4C
:101960002A540D222046641C2A540A222046641C54
:101970002A5400222046641C2A54521E2946144828
:10198000006800F037FB07E00022D24329461048E8
:10199000006800F02FFB00BF00BF0A2000F0AAFA89
:1019A00010E600005000001048000010C8010010B0
:1019B000C0000010440000106C000010080000106F
:1019C00014010010B03A0000400000102000001088
:1019D0004C000010680000102C000010E8000010FF
:1019E00000007A445400001008B51C48006800F05C
:1019F00045FB064600BF0021C9431948006800F0B6
:101A00002FFBFFF7ADFD0746FFF7EEFC00903846D1
:101A1000FFF738FA134988600098FFF733FA114945
:101A2000C8600F48006800F00DFB002402E00020B1
:101A30003055641C282CFAD30B480068FEF7C6FC0E
:101A40000546002404E008480068005D3055641C29
:101A5000AC42F8D3322000F04DFACCE75000001031
:101A6000580000101401001028000010014600204A
:101A7000C043704770B504460D46204601F012FB86
:101A800070BD000010B517480068A0210843154933
:101A90000860144880384068402108431149803963
:101AA0004860114800680121090388430E49086015
:101AB00008460068C91488430B4908608F200B4909
:101AC00008610B490B480068FEF7A2FC401E07495D
:101AD000486100204862084600680921084303491C
:101AE000086010BD80800440C0C100400000054077
:101AF000400D030098000010F8B505460E46174645
:101B000000240020FFF7F8FB0446002C38D16800C1
:101B10001E498862022008620420FFF7EDFB04469C
:101B2000002C2DD119488662012018490862042032
:101B3000FFF7E2FB0446002C22D1F0B21349886281
:101B4000012008620420FFF7D7FB0446002C17D1C0
:101B50006800401C0D498862022008620420FFF7DB
:101B6000CBFB0446002C0BD101200849086202205F
:101B7000FFF7C2FB0446002C02D10448806A38708B
:101B80000420024908622046F8BD0000000005401C
:101B9000F8B506460D46174600240020FFF7ACFBBB
:101BA0000446002C29D17000164988620220086280
:101BB0000420FFF7A1FB0446002C1ED111488562CA
:101BC0000120104908620420FFF796FB0446002C10
:101BD00013D1E8B20B498862012008620420FFF7A4
:101BE0008BFB0446002C08D106488762012005497A
:101BF00008620420FFF780FB0446042001490862C4
:101C00002046F8BD000005400EB502468020002A9F
:101C10000DD000290BD11178012908D1104601A956
:101C200000F046F8042801D0002000E01020029ABD
:101C3000019903B000BD70B50D46040004D0002A20
:101C400002D12078012801D0802070BD204600F00C
:101C5000EDFC002805D02946204600F04FF8002072
:101C600070BD812070BD70B50C4601F0C5F8012132
:101C7000C907002801D0220C01D0084670BD058B91
:101C8000C178A0B200F002F8284670BD0A460146AD
:101C90009000064A10B580188038C06F002803D025
:101CA00000F002FF00F0F0FE10BD0000740C001008
:101CB00010B50446808900281FD060898000001973
:101CC000006908606068002808D06078022805D1A3
:101CD0000021204600F0E8FE00F0D6FE72B6A08992
:101CE000401EA08162B66089401C80B26081E1899B
:101CF000884201D100206081042010BD10B500F0A1
:101D0000D3FE00F0C1FE10BD1CB500204D49086097
:101D1000FFF7B8FEFFF78EFBFFF706F901F0EEFACA
:101D200000246A4600215020FFF7E6FE002827D154
:101D30006846017801716A4601215020FFF7DCFEF8
:101D400000281BD16846017841716A460221502063
:101D5000FFF7D2FE00280FD16846017881716A46EC
:101D600003215020FFF7C8FE002803D16846017800
:101D7000C17106E0012404E0012402E0012400E036
:101D80000124002C06D13049019848602FA0FEF7AD
:101D9000D1FA05E034482C49486034A0FEF7CAFA6D
:101DA0000020394908700021384800F0FBF8384914
:101DB0000860384800F074F9374908600021374856
:101DC00000F0F0F8364908600021364800F0EAF8E3
:101DD00035490860354800F063F9354908603548F1
:101DE00000F016F934490860344800F011F934491C
:101DF0000860344800F00CF933490860334800F0BB
:101E000007F9334908600021324800F091F932495E
:101E100008600021314800F08BF931490860002149
:101E2000304800F085F93049086000212F4800F063
:101E30007FF92F4908600020C04300F05BF80020C4
:101E40001CBD0000040000101401001073756363D2
:101E5000657373206C6F616420693263206D656DFA
:101E60006F7279210D0A000000404E456661696C71
:101E700020746F206C6F616420693263206D656D22
:101E80006F7279210D0A000000000010783A0000FE
:101E9000480000106C3A000044000010943A000022
:101EA00054000010803A00004C000010883A0000F6
:101EB000500000109C3A000058000010A03A0000AA
:101EC0005C000010A83A000064000010AC3A00006A
:101ED00068000010C03A000030000010D03A000046
:101EE00034000010E03A000038000010F03A000022
:101EF0003C00001080B5EFF30581002901D082205D
:101F000080BD024FBC4600DF80BD0000C134000030
:101F100080B5EFF30580002801D0822080BDEFF36B
:101F20001480C00703D0034FBC4600DF80BD01F022
:101F3000D1FA80BDD534000080B588B0EFF30580BC
:101F4000002802D0822008B080BDEFF31480810702
:101F50001248890F06D001291AD0022910D003296E
:101F600018D112E008A981F309880078C0070AD0C7
:101F7000022080F31488BFF34F8FBFF36F8F09E007
:101F80000078C00706D10320F3E70078C00701D02E
:101F9000FF20D8E7024FBC4600DFD4E7183B000023
:101FA0004D35000080B5EFF30582002A01D00020F6
:101FB00080BDEFF31482D20703D1054A5278002A7C
:101FC00003D0044FBC4600DF80BD01F0E5FA80BDC0
:101FD0009C0000109935000080B5EFF30582002ABF
:101FE00002D0FFF711FE80BD014FBC4600DF80BD6F
:101FF000C335000080B5EFF30583002B02D0FFF757
:102000001AFE80BD014FBC4600DF80BDFF350000D9
:1020100080B5EFF30581002901D0002080BDEFF3EA
:102020001481C90703D105494978002903D0044F19
:10203000BC4600DF80BD01F0FEFA80BD9C000010B0
:102040003736000080B5EFF30581002901D08220EA
:1020500080BD024FBC4600DF80BD00005736000047
:1020600080B5EFF30582002A01D0822080BD024FA7
:10207000BC4600DF80BD00007B36000080B5EFF37A
:102080000581002907D1EFF31481C90703D0034F5D
:10209000BC4600DF80BD01F0DBFB80BD5138000095
:1020A00080B5EFF30581002901D0002080BDEFF35A
:1020B0001481C90703D105494978002903D0044F89
:1020C000BC4600DF80BD01F0F6FA80BD9C00001028
:1020D000B736000080B5EFF30582002A07D1EFF391
:1020E0001482D20703D0034FBC4600DF80BD01F04D
:1020F000B5FB80BD5D38000080B5EFF30582002A96
:1021000002D0FFF7B0FD80BD014FBC4600DF80BDAF
:10211000E536000080B5EFF30583002B01D0822067
:1021200080BD024FBC4600DF80BD00000D370000BF
:1021300080B5EFF30582002A01D0002080BDEFF3C7
:102140001482D20703D1054A5278002A03D0044FE3
:10215000BC4600DF80BD01F007FB80BD9C00001085
:1021600069370000034FBC4600DF034FBC4600DF69
:10217000FEE70000DD370000F937000080B5EFF31F
:102180000581002901D0822080BD024FBC4600DFBE
:1021900080BD0000F937000080B5024FBC4600DF6B
:1021A00080BD0000353800000025094CED4329466C
:1021B0002068FFF711FF02460846102AF7D1FFF703
:1021C000EBFF0028F3D0024608469047EFE70000F7
:1021D00088000010012806D0022805D0032804D06A
:1021E000042804D102E003E002E001E000E000BFC7
:1021F00000BF00BFFEE700BFFEE700000748016820
:102200000748416100218161072101610548016A98
:10221000FF2212061143016240177047143B000071
:1022200000E000E000ED00E00146EFF31080C2079F
:10223000D20F72B60868002801D003680B60002A2C
:1022400000D162B6704710B500280ED000290CD01E
:102250000B318A089200016844680B1A1B1B9342D9
:1022600005D2084609680029F5D1002010BD2100DB
:1022700007D0211803680B604A60016008460830E7
:1022800010BD4260083010BD70B50D4600280FD05B
:102290000849094C884204D222680146104600F0E1
:1022A00023FC20684570054800F02DF900F0E8FC9B
:1022B00070BD0000FFFF0000A4000010041000101B
:1022C00010B50E480C4942680D480B6800689342EF
:1022D00004D00A60CB88421E9A188A808A8880B20D
:1022E000824208D100200860044800F00CF9014641
:1022F000024800F021FC10BDB800001004100010CE
:10230000B400001070B51A4DE86800282FD0A88AD4
:10231000401EA882002624E0A068002808D061683A
:1023200041606068002802D0A16881606660A66094
:102330000F482146183800F0FFFBA08AA882607879
:10234000042804D10B49E08A09884018A0820120A2
:102350006070E068E860E068002801D00561E66030
:102360002661A88A002802D1EC68002CD4D170BD67
:102370001C100010B400001070B504000ED00C4DFD
:10238000A17828680126827891420BD900F0F2FBEF
:1023900028684670204600F073FC70BD054800F0C8
:1023A000B2F8F8E766702146024800F0C5FB70BD40
:1023B000A40000100410001010B50321FFF764FF03
:1023C00010BD000010B50446008B084320836278DE
:1023D000618B062A17D0052A14D1084212D00A466A
:1023E0000240628388432083204600F0ECFB0120FA
:1023F0006070628B0821204600F0E1FB2146044812
:1024000000F09AFB10BD0A468243EBD010BD0000DD
:102410000410001002468800144910B54018803896
:10242000C46F002C1CD0208B104320836278618BFA
:10243000062A16D0052A13D1084211D00A460240B6
:10244000628388432083204600F0BDFB012060703A
:10245000628B0821204600F0B2FB2046FFF78CFF7C
:1024600010BD0A468243ECD010BD0000740C001071
:1024700070B503460D480D460468002A208B08D02D
:102480001946814301D0062109E0984320830220A8
:1024900070BD0146194001D06183F6E705216383D1
:1024A0002846FFF7F1FE012070BD0000A4000010D7
:1024B000814202D342688A4201D801207047EFF37B
:1024C0001082D207D20F72B603680B60016000D190
:1024D00062B600207047002810D000290ED00022DC
:1024E000083903E002460068002807D08842F9D185
:1024F000002A05D000681060002070470120704756
:1025000000214160F8E70146406842684A600B7864
:102510000022022B05D0012B03D0032B01D04260F7
:1025200070474368002B01D0996042608260704719
:10253000810700D00020704770B504461546002082
:102540002070012262702246A170203211716060F9
:10255000A060E06020612062A082E082208360832E
:102560005071E08C002803D10448FFF75DFEE06263
:102570002946204600F01EF870BD000080050010BE
:10258000002801D0082901D2012070474118091FF5
:10259000002201600A604260104670470348002133
:1025A000016003490988C18070470000B80000102D
:1025B000083B0000F0B5C28C194D930802D12A885F
:1025C0001204930CC26A9C001219540700D5121F02
:1025D00001242406403AD463002491632646A700D0
:1025E000641CD6510E2CFAD3C46914628262016352
:1025F0002968C9000FD5112B0DD9103B5908094B7B
:1026000002E0083A53601360491EFAD1C16A121FF2
:102610008A4200D91360C06A03490160F0BD00001E
:10262000043B0000CCCCCCCCA52E5AE2C1898089D9
:10263000081A7047012202700022427082704260C4
:10264000028142818281034A89038918090CC18170
:10265000704700000000FCFFF8B504464068002702
:102660000D46002844D060780126012837D0022882
:1026700013D0032832D10846FFF7D6FD05002DD030
:102680002046FFF740FF0446294600F095FA6670A1
:10269000204600F098FA21461DE02046FFF733FF60
:1026A0000546002100F088FA2189E86989000919A6
:1026B000086172B6A089401CA08162B62089401CC6
:1026C00080B22081E189884200D127816E7028463E
:1026D00000F079FA2946134800F02EFAF8BD20469A
:1026E000FFF711FF04462A46102100F068FACEE7F2
:1026F000A089E189884211D22089800000190561F2
:1027000072B6A089401CA08162B62089401C80B2AC
:102710002081E1898842E1D12781F8BD0320FFF7BC
:1027200059FDF8BD0410001070B5436816460D46FB
:10273000002B02D0417801290DD08189C489002263
:10274000A14226D1002E14D01B4C002B216812D0A0
:1027500000F0F2F916E0FFF7D6FE04462A461021F3
:1027600000F02DFA204600F02EFA2046FFF704FE76
:1027700020E0012070BD416021684A6021688860C6
:102780000221417020680821C5613046FFF77CFDB9
:10279000EFE70189890009180D6172B68189491C2A
:1027A000818162B60189491C89B20181C38999423C
:1027B00000D10281002070BDA400001070B5044655
:1027C000808900261546002834D0608980000019D1
:1027D000006908606089401C80B26081E18988429C
:1027E00000D166816068002802D06078022806D097
:1027F00072B6A089401EA08162B6002070BD20463E
:10280000FFF781FE0546002100F0D6F92189E8692D
:102810008900091908612089401C80B22081E18962
:10282000884200D12681284600F0CDF92846FFF7DE
:10283000A3FDE2E7002D08D00B4862680168002A7A
:1028400005D0204600F078F908E0012070BD6160F5
:1028500001684E600068846001206070082128468D
:10286000FFF712FDF1E70000A400001010B50028EA
:1028700012D0411C11D00B490B4C88420BD87D2142
:10288000C900484309490A6880181146401EFDF7EF
:10289000BFFDA04204D9204610BD0348401C10BD16
:1028A00080B210BD00093D00FEFF0000243B000087
:1028B000032101700021418041608160C160704747
:1028C000F8B504464088002804D0314DA1682A6834
:1028D000914201D0FF20F8BD401E0004000C608032
:1028E00053D12968086AA04209D1E068086208E06B
:1028F000C268A24202D1E268C26002E0104600282B
:10290000F6D12420405C0A6A07E05368002B03D00C
:102910009B78834200D91846D268002AF5D1887086
:1029200061680126002922D02046FFF7ECFD07460A
:10293000002100F041F9384600F045F96680A760B3
:10294000386AE0603C621348296840688A78807879
:10295000824201D3384616E00E4800F0EDF83946C1
:102960000C4800F0E9F8286846707E700AE00949D2
:1029700049688A782968824207D9064800F0DCF85D
:10298000286846700020FFF7F7FC0020F8BD000023
:10299000A40000100410001070B50E461C4D044633
:1029A00041882868002907D0A26882420FD11948BF
:1029B000814208D1FF2070BDA060016AE16004621D
:1029C0000120608001E0491C6180002070BD002E64
:1029D0000FD091788078814203D29070A06800F087
:1029E000D3F86068002806D02046296800F0A4F8D3
:1029F00008E0012070BD28686060296800204860F8
:102A00002868846009213046FFF73EFCF1E70000AA
:102A1000A4000010FFFF000070B5184801210268F3
:102A20005170006800F0A6F8154C657813E0E800D6
:102A3000011948680278002A17D0012A1AD000F03C
:102A4000F1F8E0786D1C854200D1002572B6A078BF
:102A5000401EA07062B6A0780028E8D165700948D1
:102A6000FFF751FD00F00CF970BD098989B2FFF73D
:102A7000A9FCE6E78968FFF7EFFDE2E7A400001094
:102A8000F00B00100410001005480178002902D056
:102A900001214170704701200249000748607047DA
:102AA000AC00001000ED00E070B50E4BDD789C1C12
:102AB0001E4672B69A78AA4207D2521C2270327809
:102AC000541CAC4200D10024347062B6DC789442CD
:102AD00004D9D200D2189160506070BD0220FFF777
:102AE00079FB70BDF00B001010B5124AD368002BB3
:102AF00017D013469B8A04E0002C12D02246A48AE9
:102B0000E318D4688B42F7D3C460D0600261C46814
:102B1000002C00D02061591A8182908A401A90823C
:102B200010BD0024C460D060C91A02619182848201
:102B300010BD00001C10001030B502780023022ADE
:102B400003D0012A01D0032A00D101238C7800E0B0
:102B500010464268002A02D09578A542F8D24A6011
:102B60004160002B04D0002A00D09160886030BD05
:102B70000020FBE703494A68426000228260486007
:102B8000704700000410001010B583680446002B45
:102B900005D1607801280CD1064B03E09B681878BA
:102BA0000028FBD0204600F023F821461846FFF706
:102BB000C3FF10BD04100010806A01627047806A74
:102BC00042620162704710B5016900290FD0C268E6
:102BD000CA60C3680022002B07D08B8A848A1B1925
:102BE0008B82C3681961C26000E08A82026110BDF5
:102BF0008168002907D042684A604168002901D0F5
:102C0000806888607047064906E04A68824202D1BF
:102C100040684860704711460029F6D170470000AF
:102C20000410001010B5416800290FD0FFF76BFCAD
:102C30000446FFF7C8FF0120607001462046FFF7F9
:102C4000BBFF21460348FFF777FF10BD4188491CB1
:102C5000418010BD0410001010B507480068816A5B
:102C6000C06A814203D300680449884202D001202F
:102C7000FFF7B0FA10BD0000A4000010A52E5AE224
:102C8000024948600221417070470000A400001012
:102C900070B5002004462049204A02E08300CC5051
:102CA000401C13889842F9D31D48342201881D48DE
:102CB000FEF754FB1C4801210088C90780B2421866
:102CC0001A4801681A48FEF749FB1A480822018889
:102CD00019480068FEF742FB184DFF20E870EC84AD
:102CE000174A00212846FFF727FC164804210170E7
:102CF000446015480170C46004618482134815491A
:102D00000560022068701248047044700978C17030
:102D1000FFF744FC70BD0000740C0010003B000085
:102D20002C3B000008040010043B0000303B000076
:102D300080050010543B000090000010D00F0010E0
:102D4000F7210000041000101C100010A400001057
:102D5000F00B0010383B000010B51448016AFF2248
:102D6000120411430162C169026A5202920E920674
:102D70001143C161FFF742FA0D490028086013DBD7
:102D800082080C49920051180A688307DC0EFF2361
:102D9000A3401A430A60C206D20E012191404009A5
:102DA000054A80008018016010BD000000ED00E0C1
:102DB000B000001000E400E000E100E010B50B48B6
:102DC0000121026851700068FFF7D4FEFFF778FA1E
:102DD00007480168491C0160FFF794FA00F04AFDBA
:102DE0000448FFF790FBFFF74BFF10BDA400001055
:102DF000B400001004100010002805D0810702D193
:102E00000178002900D000207047000030B50C4C3C
:102E10000023626805E095688D4204D81346126865
:102E2000491B002AF7D102608160002A02D0956810
:102E3000691A9160002B01D0186030BD606030BD10
:102E40009C000010FFB5080681B01E4617460D46CF
:102E5000000E00D14D1C1648FFF7E6F9041E18D0ED
:102E60002802000CE762E084E661E9B22046019A9C
:102E7000FFF762FB01250F480F4906E0AA00121870
:102E8000803AD26F002A06D06D1C0A889542F5D987
:102E9000002005B0F0BD002DFAD0A9000818803838
:102EA000C467E5702046FFF767FA2846F1E700009F
:102EB00008040010740C0010003B0000F8B54F4DE2
:102EC00000262968002802D0CA7882423ED14E707E
:102ED000FDF75FF929688862FFF7BEFE2868046A7B
:102EE00020E06068002818D02046FFF70CFB07465A
:102EF0000021FFF761FE3846FFF765FE012078707C
:102F000039463F48FFF718FE0120E1686080A7605E
:102F1000386AE0603C620C4604E0E0686680A660C7
:102F2000E6600446002CDCD12868C1788A00354967
:102F300051188039CE67C16A3348FFF7B9FA29685A
:102F40003248CE62FFF7B4FA2E6051E0304909886A
:102F500088420FD881002B48081880380090C56F30
:102F6000002D07D02846FFF743FE2846FFF72BFE2B
:102F70002C6A22E0FF20F8BD6068002818D02046A7
:102F8000FFF7C1FA07460021FFF716FE3846FFF7A4
:102F90001AFE0120787039461948FFF7CDFD01204F
:102FA000E1686080A760386AE0603C620C4604E03B
:102FB000E0686680A660E6600446002CDCD10098DC
:102FC000C6671148E96AFFF773FA29460F48EE62AF
:102FD000FFF76EFA0A4840688178084802689378DB
:102FE000994208D90121517001680548FFF7A4FDF5
:102FF0000020FFF7C1F90020F8BD0000A400001078
:1030000004100010740C001080050010080400105B
:10301000003B000070B51B4D002811D01A4A1288E1
:10302000904220D88200194810188038C46F002CB4
:1030300019D0A170242001552868A04205D014E0C1
:1030400028688170286820300171114840688078B4
:10305000884215D90E482968FFF76EFD29680120BE
:10306000487000200AE0FF2070BD2046FFF78CFD6D
:103070006078012804D10648FFF745FAFFF77CF98C
:10308000002070BDA4000010003B0000740C001074
:103090000410001002480068002800D0C078704773
:1030A000A400001000BF04498968042211400029CF
:1030B000F9D00149C8617047004006408AB05548C0
:1030C0000068FEF7DBFF064600BF0021C9435248F7
:1030D0000068FEF781FF514B07C3504840687D21CF
:1030E000C90044184E48844203D908204D4908615C
:1030F00034E04D48844203D907204A4908612DE055
:103100004A48844203D906204649086126E04848D7
:10311000844203D90520434908611FE07D208001D6
:10312000844203D904203F49086117E041488442A2
:1031300003D903203B49086110E03F48844203D98A
:1031400002203849086109E03C48844203D9012043
:103150003449086102E00020324908610021C94376
:1031600037480068FEF77CFF2E490869FDF7A0FF8D
:1031700033480068FEF766FF0021C9433148006804
:10318000FEF76EFF25494868FDF77CFE0190FDF7CC
:103190005BFD2D4A2D4B03910290FDF731FC00227F
:1031A0002B4B05910490FDF7E3F907910690FDF78D
:1031B00003FC0890089800F0BFF8002801D1002710
:1031C00000E001271F480068FEF73CFF002503E0F0
:1031D00000207055681CC5B2282DF9DBB9001D4AC6
:1031E0005058FDF7F3F8C0B20990002506E0B8008A
:1031F00018490858405D7055681CC5B20998854249
:10320000F5DB0022D243314613480068FEF7F2FE98
:103210005BE700005000001054000010AC030010E9
:10322000E02E000014010010F82A00001027000012
:1032300028230000581B00007017000088130000AE
:103240005C00001064000010FCA9F1D24D62F03F58
:1032500000001840200000104C00001010B5E124C0
:1032600064021F480068112108431D4908601D4879
:1032700000681D4908431B49086008460068FB2197
:1032800088431849086008460068FF2109028843FE
:10329000144908601248006809140843104908607E
:1032A00001204861210111480068FDF7B1F8401E76
:1032B0000F490862052008600E4888600120C86038
:1032C0000420086108464068402188430849486056
:1032D000032001218140084A116000BF10BD000099
:1032E0008080044000C00040FFFF000098000010F4
:1032F0000040064020F9010000E100E00B48406872
:1033000040084000094948600846406801210843D8
:103310000649486006480749486235200860002091
:103320004860592040050862704700000080044052
:103330001F4E000000800540F8B505462804070E22
:10334000EEB2FC2006400120C00430490860400075
:103350000860002420E00120C0042C49086080207F
:103360003840002805D001208004284980390860B1
:1033700003E001208004254908600120FEF7BAFD22
:103380000120C0042149803908607806070E012019
:10339000FEF7B0FD601CC4B2082CDCDB002420E08A
:1033A0000120C0041949086080203040002805D061
:1033B0000120800415498039086003E00120800461
:1033C000124908600120FEF795FD0120C0040F4955
:1033D000803908607006060E0120FEF78BFD601C28
:1033E000C4B2082CDCDB0120C0040849086040009E
:1033F0000649803908600120FEF77CFD0120C004E9
:103400000249803908600020F8BD0000802200A039
:1034100030B500230022002048E0002113E08400A2
:10342000244D2C59645C0D2C00D10EE08400214DFC
:103430002C59645C204D6D5CAC4201D0AA2304E0A1
:1034400055234C1CE1B22829E9DB00BF552B2BD1B9
:10345000002204E00024194DAC54541CE2B2282A86
:10346000F8DB154C645C0D2C03D10024134D2C703B
:103470001EE0114C645C202C02D1AA240F4D2C704C
:103480004C1CE1B2012200BF0B4C645C0D2C00D13E
:1034900008E0094C645C094DAC544C1CE1B2541C6E
:1034A000E2B2F1E700BF03E0441CE0B20528B4DB60
:1034B00000BF30BD08000010C0000010E800001080
:1034C00010B5002804D0FFF7D1F9FEF775FF4020B2
:1034D00010BD000010B5154C207800280DD11448FF
:1034E000400706D1134801681148FFF749F8002842
:1034F00001D0852010BDFFF7CBFB0F49FF200968E5
:103500008870207800280BD100210C4800F044F886
:103510000B49086000210B4800F026F90A490860B1
:10352000012020700020607010BD00009C00001081
:10353000400A0010343B0000A40000104C3B000087
:10354000880000103C3B00008400001070B5104D56
:103550006878002801D0002070BD0E4C2068203013
:1035600001790020FFF756FD2068C178FF2903D1BB
:10357000816A203181F309886168002902D1606085
:1035800000202060FFF7E8FB01206870E3E70000FF
:103590009C000010A400001010B5040008D02168A1
:1035A000002905D06068002802D00278002A01D0E6
:1035B000002010BD8900103189B2FFF73BF8606828
:1035C00010BD3EB5044680200D46002C13D0217856
:1035D000012910D12846FFF749F90246204601A9E2
:1035E000FFF7ECF8012801D0102004E0002D01D0F5
:1035F000402000E00020029A019903B030BD70B570
:103600000E460400154602D02078012801D0802003
:1036100070BD1046FFF72AF9024631462046FFF7F3
:1036200083F8012801D0002070BD002D01D0C120F9
:1036300070BD812070BD10B5002806D00468002C34
:1036400002D02078002801D0002010BD2046FFF7CE
:103650002FF9204610BD10B5FEF76AFF002802D0F2
:103660000178032901D0802010BDFFF729F9FF2838
:1036700001D0002010BD812010BD70B50D46FEF7B1
:1036800057FF040002D02078032801D0802070BDAD
:103690002846FFF7EBF801462046FFF77DF90128A1
:1036A00003D0FF2805D0002070BD002D01D0C1201F
:1036B00070BD812070BD10B5040011D021680029B3
:1036C0000ED06268002A0BD0A068002808D0D21C57
:1036D0009208920051430C31FDF740FEA06810BDE6
:1036E000002010BD70B50C46FFF786FB0121C9070D
:1036F000002801D0220C01D0084670BD058BC1788E
:10370000A0B2FEF787FE284670BD000070B50446E3
:103710000E46000C01D086201FE0002C084605D084
:10372000FFF7A4F80146A0B2012204E0FFF79EF8DB
:10373000014600220A48FEF79BFE022803D0002E15
:1037400009D0402008E00820002C02D10549096872
:103750004C8B214601E0002000212A4670BD00006C
:10376000FFFF0000A400001070B50E4604002CD02E
:103770002068002829D06068C11C26DB032824DCCF
:10378000E168002905D01248FEF75DFD051E15D041
:1037900000E00025E06861680002091D014333462E
:1037A0002A462068FFF74EFB002808D00949800010
:1037B00040188038C06F0849826A516370BD002D7F
:1037C00003D029460248FEF786FE002070BD0000A7
:1037D000400A0010740C00106521000010B5FFF7BE
:1037E00059FC002804D00349800040188038C06F7D
:1037F00010BD0000740C001010B5FFF7FDFA002892
:1038000004D0C18C002903D0C46A02E0802010BD1E
:103810000024C078FFF752FBFF2807D0002C03D00C
:1038200021460348FEF757FE002010BD812010BD41
:10383000400A001010B5FEF77BFE002805D0416954
:10384000026909680846114610BD0020014610BDF6
:1038500010B5002801D0FEF7E7FC10BD10B5002818
:1038600005D0FEF725FE002800D0862010BD802060
:1038700010BD0000F8B5134E7468002C1BD0A06872
:10388000114F401EA06013E025462468746000229A
:1038900029463868FEF7CFF9002802D00420FEF749
:1038A00099FC6879012807D001202871002C02D0EA
:1038B000A0680028E8D0F8BD2846E968FFF7A6FA16
:1038C000F4E700009C000010880000100EB51948B5
:1038D0000068FEF7D3FB044600BF0021C943012066
:1038E000FEF718FC6B4607C313484069C5B213487E
:1038F000006825540A2D10D110480068401C0F495B
:1039000008600020096860540C490860421E214686
:103910000B480068FEF76EFBDFE708480068401CB4
:1039200006490860084600686428D6D1002008606F
:10393000D3E70000440000100040064004000010DF
:103940004800001000BF0021C94318480068FEF776
:1039500043FB174B07C3164800681028F3D1002417
:1039600020E013484568285D002805D12946114804
:103970000068FEF7AFFB17E000260EE00E488068F7
:1039800004210840002803D0285D0B49C86106E0E7
:103990000120FEF7AFFA701CC6B20A2EEEDB00BFA4
:1039A000601CC4B2282CDCDBCDE700004C0000100A
:1039B00008020010500000100040064070B54200A0
:1039C00064414B005C41120E39D01B0E38D0FF2AE7
:1039D0003CD0FF2B3AD040024902400A490A060077
:1039E00045184E43000A090AD2184843ED017F3AB0
:1039F0000104731A4019190C4318990F04D00121BE
:103A00005B0849075B1A521CD80904D3401CF50314
:103A100001D19D0607D0FF2A08D2D50506D0E407BC
:103A20002043401970BD0125A843F4E7002A01DCBA
:103A3000E00770BD2402FF202043C00570BD1B0EAF
:103A4000FF2A03D0FF2B01D0E00770BDFF26450001
:103A50003606B54206D84D00B54203D8D218FF2A23
:103A600000D0E7E7004870BD0000C07F0300000001
:103A7000280000002801001003000000AC01001025
:103A800009000000D4010010090000002800000017
:103A9000140200100500000088030010B803001095
:103AA000C8030010D8030010E8030010F80300104A
:103AB000E919000000000000010000000000000003
:103AC000CD380000020000000100000000000000EE
:103AD000AD15000001000000010000000000000022
:103AE000BD300000000000000100000000000000E8
:103AF0004539000000000000010000000000000047
:103B000007000000C800020105000100001BB7000B
:103B10000C000000DF2E0000010000000200010088
:103B200052000400E80300000000000078010000DB
:103B3000C0040000B001000010000000A921000036
:103B40000200000001000000C800000004000000A6
:103B5000900C001000000000091D00000000000093
:103B600001000000C800000080807F7E7D7C7B7AA1
:103B70007978777676757473727171706F6E6E6D19
:103B80006C6C6B6A6A6968686766666564646363BF
:103B900062616160605F5F5E5E5D5D5C5C5B5B5A45
:103BA0005A595958585757565655555554545353B2
:103BB00052525251515050504F4F4F4E4E4D4D4D0D
:103BC0004C4C4C4B4B4B4A4A4A4949494848484758
:103BD0004747474646464545454444444443434396
:103BE00043424242424141418182838485868788A3
:103BF000898B8C8D8E8F919293959697999A9C9D97
:103C00009FA0A2A3A5A7A8AAACAEB0B2B3B5B7B9FE
:103C1000BCBEC0C2C5C7C9CCCED1D4D7D9DCDFE2C7
:103C2000E6E9ECF0F3F7FAFE6661696C6564210D74
:103C30000A0000007375636365737366756C6C7955
:103C4000210D0A00696E76616C696420636F6D6D89
:103C5000616E640D0A00000067657420766F6C74F5
:103C60006167650D0A00000073657420766F6C74DF
:103C70006167650D0A000000706F776572206F66DE
:103C8000660D0A00706F776572206F6E0D0A000076
:103C9000646F206D6561737572656D656E740D0A74
:103CA000000000006765742063757272656E740DA4
:103CB0000A0000006661696C656420746F20777289
:103CC00069746520493243206D656D6F72790D0A04
:103CD00000000000F43C000000000010C0000000E4
:103CE00004010000B43D0000C0000010D811000025
:103CF000200100000000000000000000843C0000E3
:103D0000783C0000683C0000583C0000A43C0000E7
:103D1000443C0000343C0000283C0000903C000083
:103D2000B43C0000000000000000000000000000A3
:103D30000000000000000000000000000000000083
:103D40000000000000000000000000000000000073
:103D50000000000000000000000000000000000063
:103D60000000000000000000000000000000000053
:103D70000000000000000000000000000000000043
:103D800000000000000000000000000000366E018E
:103D90000000000000000000000000000000000023
:103DA0000000000000000000000000000000000013
:043DB000000000000F
:04000005000000C136
:00000001FF
